:100000000C9468000C9490000C9490000C94900058
:100010000C9490000C9490000C9490000C94900020
:100020000C9490000C9490000C9490000C94900010
:100030000C9490000C9490000C9490000C94900000
:100040000C940F010C9490000C946B030C949D0382
:100050000C9490000C9490000C9490000C949000E0
:100060000C9490000C949000507472206973206E70
:100070006F74206E756C6C00507472206973204E22
:10008000554C4C00536574757020646F6E650001AB
:10009000020408102040800102040810200102041C
:1000A00008102004040404040404040202020202EE
:1000B0000203030303030300000000250028002BB4
:1000C0000000000000240027002A0000E600CD0305
:1000D00011241FBECFEFD8E0DEBFCDBF11E0A0E0FE
:1000E000B1E0E4E8F9E002C005900D92A232B10758
:1000F000D9F722E0A2E2B1E001C01D92A63CB2070E
:10010000E1F710E0C0EDD0E004C02297FE010E94AC
:10011000BC04CC3CD107C9F70E9488040C94C004ED
:100120000C9400000895FC015383428308950895C0
:10013000DC011296ED91FC91139780819181892BBE
:1001400019F468E770E002C068E670E089E492E0C4
:100150000C94750426E040E855E260E070E089E424
:1001600092E00E94090340E352E068E372E082E219
:1001700091E00E94930044E062E372E082E291E049
:100180000E94970064E870E089E492E00C947504A2
:10019000109231021092300282E291E00E949800A7
:1001A00068EE73E080E090E00E947C0180E391E0E3
:1001B000909331028093300282E291E00E94980095
:1001C00068EE73E080E090E00C947C010F931F9345
:1001D00065E088E392E00E94000182E392E00E94E1
:1001E000070104E610E020E030E045E050E060E088
:1001F00070E082E291E00E9492001F910F910895B9
:10020000FC01862F1782608361E00C94F101FC01F0
:100210001182108284E0828382E0838308951F929A
:100220000F920FB60F9211242F933F938F939F93AA
:10023000AF93BF938091410290914202A0914302FB
:10024000B09144023091400223E0230F2D3720F477
:100250000196A11DB11D05C026E8230F0296A11D20
:10026000B11D209340028093410290934202A093DB
:100270004302B09344028091450290914602A091BE
:100280004702B09148020196A11DB11D809345021D
:1002900090934602A0934702B0934802BF91AF915A
:1002A0009F918F913F912F910F900FBE0F901F90B4
:1002B00018953FB7F8948091450290914602A0911D
:1002C0004702B091480226B5A89B05C02F3F19F000
:1002D0000196A11DB11D3FBF6627782F892F9A2F48
:1002E000620F711D811D911D42E0660F771F881FEF
:1002F000991F4A95D1F708958F929F92AF92BF921E
:10030000CF92DF92EF92FF926B017C010E94590124
:100310004B015C01C114D104E104F104F1F00E942D
:1003200097040E945901681979098A099B09683E56
:1003300073408105910570F321E0C21AD108E108EC
:10034000F10888EE880E83E0981EA11CB11CC11430
:10035000D104E104F10429F7DDCFFF90EF90DF90A5
:10036000CF90BF90AF909F908F900895789484B570
:10037000826084BD84B5816084BD85B5826085BDA1
:1003800085B5816085BDEEE6F0E080818160808387
:10039000E1E8F0E01082808182608083808181606A
:1003A0008083E0E8F0E0808181608083E1EBF0E031
:1003B000808184608083E0EBF0E0808181608083D5
:1003C000EAE7F0E0808184608083808182608083BE
:1003D0008081816080838081806880831092C100E9
:1003E0000895CF93DF9390E0FC01E157FF4F2491F4
:1003F000FC01ED55FF4F8491882349F190E0880F6F
:10040000991FFC01EF53FF4FA591B49189549F4F61
:10041000FC01C591D4919FB7611108C0F8948C91EB
:10042000209582238C93888182230AC0623051F404
:10043000F8948C91322F309583238C938881822B72
:10044000888304C0F8948C91822B8C939FBFDF919A
:10045000CF910895FC01818D228D90E08096821BC2
:1004600091098F7199270895FC01918D828D9817BC
:1004700031F0828DE80FF11D858D90E008958FEFAA
:100480009FEF0895FC01918D828D981761F0828D08
:10049000DF01A80FB11D5D968C91928D9F5F9F71BA
:1004A000928F90E008958FEF9FEF089583EC93E093
:1004B000892B49F080E090E0892B29F00E94C3034A
:1004C00081110C9400000895FC01848DDF01A80FB8
:1004D000B11DDD962C91848D90E001968F73992744
:1004E000848FA689B7892C93A089B1898C91806467
:1004F0008C93938D848D981306C00288F389E02D28
:1005000080818F7D80830895CF93DF93EC01888D68
:100510008823C9F0EA89FB89808185FD05C0A88907
:10052000B9898C9186FD0FC00FB607FCF5CF80818D
:1005300085FFF2CFA889B9898C9185FFEDCFCE01D7
:100540000E946402E7CFDF91CF910895CF92DF92AE
:10055000FF920F931F93CF93DF931F92CDB7DEB718
:100560006C0181E0D60158968C9358975B969C91CC
:100570005B975C968C915C97981307C05096ED91B1
:10058000FC915197808185FD2CC0F601038D10E010
:100590000F5F1F4F0F731127F02EF601848DF81295
:1005A00011C00FB607FCF9CFD6015096ED91FC9122
:1005B0005197808185FFF1CFC60169830E94640253
:1005C0006981EBCF838DE80FF11D65AFD6015B9696
:1005D0000C935B975296ED91FC91539780818062CA
:1005E0000CC0D6015696ED91FC91579760835096BA
:1005F000ED91FC91519780818064808381E090E04F
:100600000F90DF91CF911F910F91FF90DF90CF90CE
:100610000895BF92CF92DF92EF92FF92CF93DF9334
:10062000EC016A017B01B22EE889F98982E08083BE
:10063000411581EE580761057105A1F060E079E090
:100640008DE390E0A70196010E94980421503109A2
:10065000410951095695479537952795211580E110
:10066000380798F0E889F989108260E874E88EE12B
:1006700090E0A70196010E94980421503109410998
:1006800051095695479537952795EC85FD8530831B
:10069000EE85FF852083188EEC89FD89B082EA897A
:1006A000FB89808180618083EA89FB898081886001
:1006B0008083EA89FB89808180688083EA89FB895D
:1006C00080818F7D8083DF91CF91FF90EF90DF90CD
:1006D000CF90BF9008951F920F920FB60F921124E2
:1006E0002F938F939F93EF93FF93E0915902F09193
:1006F0005A028081E0915F02F091600282FD12C097
:100700009081809162028F5F8F71209163028217C6
:1007100051F0E0916202F0E0E75BFD4F958F80932E
:10072000620201C08081FF91EF919F918F912F9183
:100730000F900FBE0F901F9018951F920F920FB63B
:100740000F9211242F933F934F935F936F937F9357
:100750008F939F93AF93BF93EF93FF9389E492E0BE
:100760000E946402FF91EF91BF91AF919F918F9191
:100770007F916F915F914F913F912F910F900FBE9D
:100780000F901F90189589E492E00E942A0221E0C0
:10079000892B09F420E0822F089510924C021092C8
:1007A0004B0288EE93E0A0E0B0E080934D0290937E
:1007B0004E02A0934F02B093500284E091E09093D8
:1007C0004A028093490285EC90E090935602809310
:1007D000550284EC90E0909358028093570280EC8D
:1007E00090E090935A028093590281EC90E09093AC
:1007F0005C0280935B0282EC90E090935E028093B7
:100800005D0286EC90E09093600280935F0210920C
:1008100062021092630210926402109265020895BF
:10082000CF92DF92EF92FF920F931F93CF93DF93BC
:100830007C016A01EB0100E010E00C151D0571F070
:100840006991D701ED91FC910190F081E02DC701F4
:100850000995892B19F00F5F1F4FEFCFC801DF916A
:10086000CF911F910F91FF90EF90DF90CF9008955F
:100870006115710581F0DB010D900020E9F7AD01F4
:1008800041505109461B570BDC01ED91FC91028050
:10089000F381E02D099480E090E00895EF92FF92BB
:1008A0000F931F93CF93DF938C017B01C0E0D0E0C7
:1008B000F701EC0FFD1F6491662359F0F801A08148
:1008C000B181ED91FC91C8010995892B11F0219618
:1008D000EFCFCE01DF91CF911F910F91FF90EF905D
:1008E000089560E171E00C9438040F931F93CF9347
:1008F000DF93EC010E944E048C01CE010E94710432
:10090000800F911FDF91CF911F910F91089508954E
:100910000E94B6010E9487040E94AA00C6E5D2E0A8
:100920000E94C8002097E1F30E945602F9CF089573
:10093000A1E21A2EAA1BBB1BFD010DC0AA1FBB1FE3
:10094000EE1FFF1FA217B307E407F50720F0A21B55
:10095000B30BE40BF50B661F771F881F991F1A94C2
:1009600069F760957095809590959B01AC01BD01EC
:10097000CF010895EE0FFF1F0590F491E02D09942B
:04098000F894FFCF19
:1009840000000000A60210042A024202340284027B
:100994000D0A006E616E00696E66006F7666002E49
:0209A400000051
:00000001FF
