:020000040000FA
:100000000C9497000C94BF000C94BF000C94BF009C
:100010000C94BF000C94BF000C94BF000C94BF0064
:100020000C94BF000C94BF000C94BF000C94BF0054
:100030000C94BF000C94BF000C94BF000C94BF0044
:100040000C9420050C94BF000C94EE040C94C8048E
:100050000C94BF000C94BF000C94BF000C94BF0024
:100060000C94BF000C94BF000000000800020100C7
:1000700000030407000000000000000053657475D1
:100080007020646F6E65007465737420330074654E
:100090007374203200746573742031005061676599
:1000A00020526561643A2000507472206973204EBA
:1000B000554C4C002D2D2D2D2D2D2D2D2D2D2D2D37
:1000C0003E003C2D2D2D2D2D2D2D2D2D2D2D2D2D6D
:1000D00057726974696E672050616765203A200025
:1000E000507472206973206E6F74206E756C6C0092
:1000F00000000000250028002B0000000000240064
:1001000027002A0004040404040404040202020276
:1001100002020303030303030102040810204080CA
:100120000102040810200102040810206A051124AD
:100130001FBECFEFD8E0DEBFCDBF11E0A0E0B1E041
:10014000E2EFFDE002C005900D92A831B107D9F7AA
:1001500022E0A8E1B1E001C01D92A63EB207E1F79E
:1001600010E0C7E9D0E004C02197FE010E94F1062B
:10017000C639D107C9F70E94BA050C94F7060C944A
:10018000000090E0FC01E85EFE4F24918C5F9E4FE2
:10019000FC018491882399F090E0880F991FFC015D
:1001A000E650FF4FA591B491FC01E051FF4F8591BE
:1001B00094918FB7F894EC91E22BEC938FBF089554
:1001C000AF92BF92CF92DF92EF92FF920F931F9365
:1001D000CF93DF936C017B018B01040F151FEB01A3
:1001E0005E01AE18BF08C017D10759F06991D6015A
:1001F000ED91FC910190F081E02DC6010995892BCC
:1002000079F7C501DF91CF911F910F91FF90EF908A
:10021000DF90CF90BF90AF900895FC01538D448D37
:10022000252F30E0842F90E0821B930B541710F0A1
:10023000CF96089501970895FC01918D828D9817AE
:1002400061F0A28DAE0FBF2FB11D5D968C91928D86
:100250009F5F9F73928F90E008958FEF9FEF0895B7
:10026000FC01918D828D981731F0828DE80FF11D80
:10027000858D90E008958FEF9FEF0895FC01918D9B
:10028000228D892F90E0805C9F4F821B91098F7394
:100290009927089584E292E00E943E0121E0892B93
:1002A00009F420E0822F089580E090E0892B29F066
:1002B0000E944A0181110C9400000895FC01A48D54
:1002C000A80FB92FB11DA35ABF4F2C91848D90E078
:1002D00001968F739927848FA689B7892C93A0895B
:1002E000B1898C91837080648C93938D848D9813E5
:1002F00006C00288F389E02D80818F7D8083089578
:10030000EF92FF920F931F93CF93DF93EC0181E065
:10031000888F9B8D8C8D98131AC0E889F98980810C
:1003200085FF15C09FB7F894EE89FF896083E8893F
:10033000F98980818370806480839FBF81E090E031
:10034000DF91CF911F910F91FF90EF900895F62EBE
:100350000B8D10E00F5F1F4F0F731127E02E8C8D58
:100360008E110CC00FB607FCFACFE889F98980819D
:1003700085FFF5CFCE010E945E01F1CFEB8DEC0F32
:10038000FD2FF11DE35AFF4FF0829FB7F8940B8FBA
:10039000EA89FB8980818062CFCF0F931F93CF932F
:1003A000DF938C01D0E0C0E0F801EC0FFD1F6491F9
:1003B000662341F084E292E00E948001892B11F0D3
:1003C0002196F2CFCE01DF91CF911F910F91089529
:1003D000CF93DF93EC01888D8823B9F0AA89BB897C
:1003E000E889F9898C9185FD03C0808186FD0DC067
:1003F0000FB607FCF7CF8C9185FFF2CF808185FF88
:10040000EDCFCE010E945E01E9CFDF91CF9108953B
:1004100090E0FC01E859FF4F2491FC01E85EFE4F9B
:100420003491FC01EC5FFE4FE491EE23C9F02223EE
:1004300039F0233001F1A8F4213019F1223029F1EB
:10044000F0E0EE0FFF1FE051FF4FA591B4918FB781
:10045000F894EC91611126C030953E233C938FBFF8
:1004600008952730A9F02830C9F0243049F7809149
:1004700080008F7D03C0809180008F778093800003
:10048000DFCF84B58F7784BDDBCF84B58F7DFBCF85
:100490008091B0008F778093B000D2CF8091B00070
:1004A0008F7DF9CF3E2BDACF3FB7F89480911D01B5
:1004B00090911E01A0911F01B091200126B5A89B2B
:1004C00005C02F3F19F00196A11DB11D3FBFBA2FE6
:1004D000A92F982F8827BC01CD01620F711D811DA6
:1004E000911D42E0660F771F881F991F4A95D1F72B
:1004F00008958F929F92AF92BF92CF92DF92EF9228
:10050000FF920E9454024B015C0188EEC82E83E0EA
:10051000D82EE12CF12C0E945402681979098A091D
:100520009B09683E734081059105A8F321E0C21A3A
:10053000D108E108F10888EE880E83E0981EA11C1E
:10054000B11CC114D104E104F10429F7FF90EF902C
:10055000DF90CF90BF90AF909F908F9008958EBD09
:1005600000000DB407FEFDCF8EB50895CF93DF9345
:10057000EC0161E088810E94080260E088810E94AD
:10058000080285E00E94AF0280E00E94AF0280FD79
:10059000FBCF61E08881DF91CF910C940802FC01D0
:1005A00001900020E9F73197AF01481B590BBC01BE
:1005B00084E292E00C94E000CF93DF930E94CD019F
:1005C000EC0182E191E00E94CF028C0F9D1FDF9130
:1005D000CF9108958F929F92AF92BF920F931F93E6
:1005E000CF93DF93CDB7DEB7A1970FB6F894DEBFF8
:1005F0000FBECDBF19A2423008F44AE08E010F5D54
:100600001F4F842E912CB12CA12CA50194010E9486
:10061000CF06E62FB901CA01EA30F4F4E05DD80153
:10062000EE938D01232B242B252B79F790E080E08E
:10063000109719F0CD010E94CF02A1960FB6F89441
:10064000DEBF0FBECDBFDF91CF911F910F91BF9045
:10065000AF909F908F900895E95CE1CFEF92FF9269
:100660000F931F93CF93DF938C01C0E17801D0E10A
:10067000F70161917F0170E090E080E04AE00E9424
:10068000EA0285E191E00E94CF02D15089F782E130
:1006900091E00E94CF02C150005F1F4FC111E6CF11
:1006A000DF91CF911F910F91FF90EF9008954F929E
:1006B0005F926F927F929F92AF92BF92CF92DF92A2
:1006C000EF92FF920F931F93CF93DF93CDB7DEB7D7
:1006D000DA950FB6F894DEBF0FBECDBFE091C3022E
:1006E000F091C402008111810115110509F44BC17B
:1006F00080EE90E00E94DC02912C6E0181E0C80E39
:10070000D81E8091C502981608F0BFC082EC90E018
:100710000E94CD016091D0027091D1028091D202ED
:100720009091D3024AE00E94EA0284EB90E00E949A
:10073000DC02C8010E942E03E090C102F090C202C8
:10074000B090D002A090D10261E0D7018C910E94BC
:10075000080260E0F70180810E94080286E00E94A2
:10076000AF0261E0D7018C910E94080260E0F701BE
:1007700080810E94080282E00E94AF028A2D0E94BE
:10078000AF028B2D0E94AF0280E00E94AF025801A1
:10079000B394D8018D918D010E94AF02A016B106CD
:1007A000C1F761E0F70180810E94080260E0D70193
:1007B0008C910E94080284E00E94AF0261E0F70180
:1007C00080810E940802C7010E94B602E090C10227
:1007D000F090C2024090D0025090D1026090D202BC
:1007E0007090D3028CE990E00E94CD01C301B20168
:1007F000882799274AE00E94EA0282E191E00E945C
:10080000CF0261E0D7018C910E94080260E0F701FD
:1008100080810E94080283E00E94AF02852D0E9421
:10082000AF02842D0E94AF0280E00E94AF028E01D1
:100830000F5F1F4F380180E00E94AF02D8018D93F7
:100840008D01CA16DB06B9F761E0F70180810E94CD
:100850000802C7010E94B602C3010E942E038091C4
:10086000D0029091D102A091D202B091D302019610
:10087000A11DB11D8093D0029093D102A093D2020A
:10088000B093D302850193943CCF0091CE02109196
:10089000CF02E12CD8018D919C918E0D911D0E946B
:1008A000B906F82EBB24B394BE0CF8018281FFEF89
:1008B000EF1609F43FC0FF2099F0EB2C8B1550F791
:1008C000F12CD8018D919C91119712962C91F216D2
:1008D00098F560E08F0D911D0E94C106F394F1CF51
:1008E0008B1578F32FEF2B0DC22ED12CF8018281BE
:1008F00040815181840F952F911D3381239F800D5D
:10090000911D112495838483F12CD80113968C9129
:100910001397F816A0F48F2D90E0FC01E053FD4FE3
:1009200014962D913C916081820F931F0E94C10605
:10093000F394EBCFB12CD6CFBB24B394D3CFF80133
:10094000808191816B2D8C0D9D1D0E94C106E091CF
:10095000C302F091C40211821082D3950FB6F894AD
:10096000DEBF0FBECDBFDF91CF911F910F91FF90E2
:10097000EF90DF90CF90BF90AF909F907F906F905F
:100980005F904F90089588EA90E00E94DC02E5CFE6
:100990001F920F920FB60F9211242F933F934F93F4
:1009A0005F936F937F938F939F93AF93BF93EF93D7
:1009B000FF9384E292E00E945E01FF91EF91BF916C
:1009C000AF919F918F917F916F915F914F913F91E7
:1009D0002F910F900FBE0F901F9018951F920F929E
:1009E0000FB60F9211242F938F939F93EF93FF9342
:1009F000E0913402F09135028081E0913A02F09169
:100A00003B0282FD1BC0908180913D028F5F8F73FE
:100A100020913E02821741F0E0913D02F0E0EC5D52
:100A2000FD4F958F80933D02FF91EF919F918F91A4
:100A30002F910F900FBE0F901F9018958081F4CFCB
:100A40001F920F920FB60F9211242F933F938F9303
:100A50009F93AF93BF938091190190911A01A09138
:100A60001B01B0911C013091180123E0230F2D3799
:100A700058F50196A11DB11D20931801809319010D
:100A800090931A01A0931B01B0931C0180911D014A
:100A900090911E01A0911F01B09120010196A11D0E
:100AA000B11D80931D0190931E01A0931F01B0936F
:100AB0002001BF91AF919F918F913F912F910F9006
:100AC0000FBE0F901F90189526E8230F0296A11DC8
:100AD000B11DD2CFE4E2F2E01382128288EE93E0FD
:100AE000A0E0B0E084839583A683B78384E091E09F
:100AF0009183808385EC90E09587848784EC90E0F7
:100B00009787868780EC90E0918B808B81EC90E0DA
:100B1000938B828B82EC90E0958B848B86EC90E0BB
:100B2000978B868B118E128E138E148EEEEDF2E063
:100B3000178285E080830E94C100E8EDF2E080E149
:100B400090E09183808384E0828382E08383E1EC80
:100B5000F2E085E090E0A0E0B0E085839683A78393
:100B6000B08784E690E0A0E0B0E081879287A38719
:100B7000B4870895789484B5826084BD84B581601B
:100B800084BD85B5826085BD85B5816085BD809158
:100B90006E00816080936E001092810080918100D0
:100BA00082608093810080918100816080938100C8
:100BB000809180008160809380008091B10084608A
:100BC0008093B1008091B00081608093B0008091EB
:100BD0007A00846080937A0080917A0082608093AA
:100BE0007A0080917A00816080937A0080917A0007
:100BF000806880937A001092C100E0913402F091F5
:100C0000350282E08083E0913002F091310210825F
:100C1000E0913202F09133028FEC808310923C021B
:100C2000E0913802F091390286E08083E09136024B
:100C3000F0913702808180618083E0913602F091EB
:100C40003702808188608083E0913602F09137021C
:100C5000808180688083E0913602F0913702808144
:100C60008F7D80838EED92E09093C2028093C102CB
:100C700082E292E09093C4028093C30281E0809369
:100C8000C502CFB7F89480912101811124C0EEE014
:100C9000F1E08491E2E2F1E09491E82FF0E0EE0FD0
:100CA000FF1FE650FF4FA591B491EC91E92321F489
:100CB00061E08AE00E9408028AE00E94C1008CB5CF
:100CC00080618CBD8CB580648CBD8DE00E94C100BC
:100CD0008BE00E94C100809121018F5F80932101F0
:100CE000CFBF8CB5837F8CBD8CB58F7D8CBD88EDDF
:100CF00092E09093CF028093CE0284E08093DA0258
:100D000088E08093DB028CE790E00E94DC02C2E284
:100D1000D1E000E010E085E990E00E94DC02D09391
:100D20002302C09322020E9457030E9479028EE898
:100D300090E00E94DC0210922302109222020E9494
:100D400057030E94790287E890E00E94DC02D0936A
:100D50002302C09322020E9457030E9479020115C8
:100D60001105C9F20E944A018823A9F20E940000DD
:100D7000D2CFF999FECF92BD81BDF89A992780B55F
:100D80000895262FF999FECF1FBA92BD81BD20BDCF
:100D90000FB6F894FA9AF99A0FBE01960895A1E257
:100DA0001A2EAA1BBB1BFD010DC0AA1FBB1FEE1FE5
:100DB000FF1FA217B307E407F50720F0A21BB30B30
:100DC000E40BF50B661F771F881F991F1A9469F7AC
:100DD00060957095809590959B01AC01BD01CF0108
:100DE0000895EE0FFF1F0590F491E02D0994F894FB
:100DF000FFCF000000008001E0000D01E8013E018E
:0A0E00001C0130010D0A0020000063
:107E0000112484B714BE81FFF0D085E080938100F7
:107E100082E08093C00088E18093C10086E0809377
:107E2000C20080E18093C4008EE0C9D0259A86E02C
:107E300020E33CEF91E0309385002093840096BBD3
:107E4000B09BFECF1D9AA8958150A9F7CC24DD24C4
:107E500088248394B5E0AB2EA1E19A2EF3E0BF2EE7
:107E6000A2D0813461F49FD0082FAFD0023811F036
:107E7000013811F484E001C083E08DD089C08234E0
:107E800011F484E103C0853419F485E0A6D080C0E4
:107E9000853579F488D0E82EFF2485D0082F10E0AE
:107EA000102F00270E291F29000F111F8ED06801E7
:107EB0006FC0863521F484E090D080E0DECF843638
:107EC00009F040C070D06FD0082F6DD080E0C81688
:107ED00080E7D80618F4F601B7BEE895C0E0D1E017
:107EE00062D089930C17E1F7F0E0CF16F0E7DF06D8
:107EF00018F0F601B7BEE89568D007B600FCFDCFD4
:107F0000A601A0E0B1E02C9130E011968C91119780
:107F100090E0982F8827822B932B1296FA010C0160
:107F200087BEE89511244E5F5F4FF1E0A038BF0790
:107F300051F7F601A7BEE89507B600FCFDCF97BE46
:107F4000E89526C08437B1F42ED02DD0F82E2BD052
:107F50003CD0F601EF2C8F010F5F1F4F84911BD097
:107F6000EA94F801C1F70894C11CD11CFA94CF0C13
:107F7000D11C0EC0853739F428D08EE10CD085E9AC
:107F80000AD08FE07ACF813511F488E018D01DD067
:107F900080E101D065CF982F8091C00085FFFCCF94
:107FA0009093C60008958091C00087FFFCCF809118
:107FB000C00084FD01C0A8958091C6000895E0E648
:107FC000F0E098E1908380830895EDDF803219F02E
:107FD00088E0F5DFFFCF84E1DECF1F93182FE3DFCA
:107FE0001150E9F7F2DF1F91089580E0E8DFEE27F6
:047FF000FF270994CA
:027FFE00040479
:00000001FF
